{
	"data": {
		"bytecode": {
			"linkReferences": {},
			"object": "608060405234801561001057600080fd5b506119ee806100206000396000f3fe608060405234801561001057600080fd5b506004361061004b5760003560e01c806246a65a14610050578063201cb0b61461006c578063a526b2171461008a578063f74258f9146100ba575b600080fd5b61006a60048036038101906100659190610fb6565b6100d6565b005b6100746101b3565b60405161008191906114e8565b60405180910390f35b6100a4600480360381019061009f9190610fb6565b610b62565b6040516100b19190611519565b60405180910390f35b6100d460048036038101906100cf9190611560565b610c45565b005b60008060003373ffffffffffffffffffffffffffffffffffffffff1673ffffffffffffffffffffffffffffffffffffffff16815260200190815260200160002090508881600001908161012991906118e6565b508781600101908161013b91906118e6565b508681600201908161014d91906118e6565b508581600301908161015f91906118e6565b508481600401908161017191906118e6565b508381600501908161018391906118e6565b508281600601908161019591906118e6565b50818160070190816101a791906118e6565b50505050505050505050565b6101bb610e09565b6000803373ffffffffffffffffffffffffffffffffffffffff1673ffffffffffffffffffffffffffffffffffffffff1681526020019081526020016000206040518061014001604052908160008201805461021590611709565b80601f016020809104026020016040519081016040528092919081815260200182805461024190611709565b801561028e5780601f106102635761010080835404028352916020019161028e565b820191906000526020600020905b81548152906001019060200180831161027157829003601f168201915b505050505081526020016001820180546102a790611709565b80601f01602080910402602001604051908101604052809291908181526020018280546102d390611709565b80156103205780601f106102f557610100808354040283529160200191610320565b820191906000526020600020905b81548152906001019060200180831161030357829003601f168201915b5050505050815260200160028201805461033990611709565b80601f016020809104026020016040519081016040528092919081815260200182805461036590611709565b80156103b25780601f10610387576101008083540402835291602001916103b2565b820191906000526020600020905b81548152906001019060200180831161039557829003601f168201915b505050505081526020016003820180546103cb90611709565b80601f01602080910402602001604051908101604052809291908181526020018280546103f790611709565b80156104445780601f1061041957610100808354040283529160200191610444565b820191906000526020600020905b81548152906001019060200180831161042757829003601f168201915b5050505050815260200160048201805461045d90611709565b80601f016020809104026020016040519081016040528092919081815260200182805461048990611709565b80156104d65780601f106104ab576101008083540402835291602001916104d6565b820191906000526020600020905b8154815290600101906020018083116104b957829003601f168201915b505050505081526020016005820180546104ef90611709565b80601f016020809104026020016040519081016040528092919081815260200182805461051b90611709565b80156105685780601f1061053d57610100808354040283529160200191610568565b820191906000526020600020905b81548152906001019060200180831161054b57829003601f168201915b5050505050815260200160068201805461058190611709565b80601f01602080910402602001604051908101604052809291908181526020018280546105ad90611709565b80156105fa5780601f106105cf576101008083540402835291602001916105fa565b820191906000526020600020905b8154815290600101906020018083116105dd57829003601f168201915b5050505050815260200160078201805461061390611709565b80601f016020809104026020016040519081016040528092919081815260200182805461063f90611709565b801561068c5780601f106106615761010080835404028352916020019161068c565b820191906000526020600020905b81548152906001019060200180831161066f57829003601f168201915b505050505081526020016008820154815260200160098201805480602002602001604051908101604052809291908181526020016000905b82821015610b55578382906000526020600020906009020160405180610120016040529081600082015481526020016001820160009054906101000a900473ffffffffffffffffffffffffffffffffffffffff1673ffffffffffffffffffffffffffffffffffffffff1673ffffffffffffffffffffffffffffffffffffffff16815260200160028201805461075890611709565b80601f016020809104026020016040519081016040528092919081815260200182805461078490611709565b80156107d15780601f106107a6576101008083540402835291602001916107d1565b820191906000526020600020905b8154815290600101906020018083116107b457829003601f168201915b505050505081526020016003820180546107ea90611709565b80601f016020809104026020016040519081016040528092919081815260200182805461081690611709565b80156108635780601f1061083857610100808354040283529160200191610863565b820191906000526020600020905b81548152906001019060200180831161084657829003601f168201915b5050505050815260200160048201805461087c90611709565b80601f01602080910402602001604051908101604052809291908181526020018280546108a890611709565b80156108f55780601f106108ca576101008083540402835291602001916108f5565b820191906000526020600020905b8154815290600101906020018083116108d857829003601f168201915b5050505050815260200160058201805461090e90611709565b80601f016020809104026020016040519081016040528092919081815260200182805461093a90611709565b80156109875780601f1061095c57610100808354040283529160200191610987565b820191906000526020600020905b81548152906001019060200180831161096a57829003601f168201915b505050505081526020016006820180546109a090611709565b80601f01602080910402602001604051908101604052809291908181526020018280546109cc90611709565b8015610a195780601f106109ee57610100808354040283529160200191610a19565b820191906000526020600020905b8154815290600101906020018083116109fc57829003601f168201915b50505050508152602001600782018054610a3290611709565b80601f0160208091040260200160405190810160405280929190818152602001828054610a5e90611709565b8015610aab5780601f10610a8057610100808354040283529160200191610aab565b820191906000526020600020905b815481529060010190602001808311610a8e57829003601f168201915b50505050508152602001600882018054610ac490611709565b80601f0160208091040260200160405190810160405280929190818152602001828054610af090611709565b8015610b3d5780601f10610b1257610100808354040283529160200191610b3d565b820191906000526020600020905b815481529060010190602001808311610b2057829003601f168201915b505050505081525050815260200190600101906106c4565b5050505081525050905090565b6000806000803373ffffffffffffffffffffffffffffffffffffffff1673ffffffffffffffffffffffffffffffffffffffff168152602001908152602001600020905089816000019081610bb691906118e6565b5088816001019081610bc891906118e6565b5087816002019081610bda91906118e6565b5086816003019081610bec91906118e6565b5085816004019081610bfe91906118e6565b5084816005019081610c1091906118e6565b5083816006019081610c2291906118e6565b5082816007019081610c3491906118e6565b503391505098975050505050505050565b60008060008a73ffffffffffffffffffffffffffffffffffffffff1673ffffffffffffffffffffffffffffffffffffffff168152602001908152602001600020905060006040518061012001604052804281526020013373ffffffffffffffffffffffffffffffffffffffff1681526020018a8152602001898152602001888152602001878152602001868152602001858152602001848152509050816009018190806001815401808255809150506001900390600052602060002090600902016000909190919091506000820151816000015560208201518160010160006101000a81548173ffffffffffffffffffffffffffffffffffffffff021916908373ffffffffffffffffffffffffffffffffffffffff1602179055506040820151816002019081610d7591906118e6565b506060820151816003019081610d8b91906118e6565b506080820151816004019081610da191906118e6565b5060a0820151816005019081610db791906118e6565b5060c0820151816006019081610dcd91906118e6565b5060e0820151816007019081610de391906118e6565b50610100820151816008019081610dfa91906118e6565b50505050505050505050505050565b604051806101400160405280606081526020016060815260200160608152602001606081526020016060815260200160608152602001606081526020016060815260200160008152602001606081525090565b6000604051905090565b600080fd5b600080fd5b600080fd5b600080fd5b6000601f19601f8301169050919050565b7f4e487b7100000000000000000000000000000000000000000000000000000000600052604160045260246000fd5b610ec382610e7a565b810181811067ffffffffffffffff82111715610ee257610ee1610e8b565b5b80604052505050565b6000610ef5610e5c565b9050610f018282610eba565b919050565b600067ffffffffffffffff821115610f2157610f20610e8b565b5b610f2a82610e7a565b9050602081019050919050565b82818337600083830152505050565b6000610f59610f5484610f06565b610eeb565b905082815260208101848484011115610f7557610f74610e75565b5b610f80848285610f37565b509392505050565b600082601f830112610f9d57610f9c610e70565b5b8135610fad848260208601610f46565b91505092915050565b600080600080600080600080610100898b031215610fd757610fd6610e66565b5b600089013567ffffffffffffffff811115610ff557610ff4610e6b565b5b6110018b828c01610f88565b985050602089013567ffffffffffffffff81111561102257611021610e6b565b5b61102e8b828c01610f88565b975050604089013567ffffffffffffffff81111561104f5761104e610e6b565b5b61105b8b828c01610f88565b965050606089013567ffffffffffffffff81111561107c5761107b610e6b565b5b6110888b828c01610f88565b955050608089013567ffffffffffffffff8111156110a9576110a8610e6b565b5b6110b58b828c01610f88565b94505060a089013567ffffffffffffffff8111156110d6576110d5610e6b565b5b6110e28b828c01610f88565b93505060c089013567ffffffffffffffff81111561110357611102610e6b565b5b61110f8b828c01610f88565b92505060e089013567ffffffffffffffff8111156111305761112f610e6b565b5b61113c8b828c01610f88565b9150509295985092959890939650565b600081519050919050565b600082825260208201905092915050565b60005b8381101561118657808201518184015260208101905061116b565b60008484015250505050565b600061119d8261114c565b6111a78185611157565b93506111b7818560208601611168565b6111c081610e7a565b840191505092915050565b6000819050919050565b6111de816111cb565b82525050565b600081519050919050565b600082825260208201905092915050565b6000819050602082019050919050565b600073ffffffffffffffffffffffffffffffffffffffff82169050919050565b600061123b82611210565b9050919050565b61124b81611230565b82525050565b60006101208301600083015161126a60008601826111d5565b50602083015161127d6020860182611242565b50604083015184820360408601526112958282611192565b915050606083015184820360608601526112af8282611192565b915050608083015184820360808601526112c98282611192565b91505060a083015184820360a08601526112e38282611192565b91505060c083015184820360c08601526112fd8282611192565b91505060e083015184820360e08601526113178282611192565b9150506101008301518482036101008601526113338282611192565b9150508091505092915050565b600061134c8383611251565b905092915050565b6000602082019050919050565b600061136c826111e4565b61137681856111ef565b93508360208202850161138885611200565b8060005b858110156113c457848403895281516113a58582611340565b94506113b083611354565b925060208a0199505060018101905061138c565b50829750879550505050505092915050565b60006101408301600083015184820360008601526113f48282611192565b9150506020830151848203602086015261140e8282611192565b915050604083015184820360408601526114288282611192565b915050606083015184820360608601526114428282611192565b9150506080830151848203608086015261145c8282611192565b91505060a083015184820360a08601526114768282611192565b91505060c083015184820360c08601526114908282611192565b91505060e083015184820360e08601526114aa8282611192565b9150506101008301516114c16101008601826111d5565b506101208301518482036101208601526114db8282611361565b9150508091505092915050565b6000602082019050818103600083015261150281846113d6565b905092915050565b61151381611230565b82525050565b600060208201905061152e600083018461150a565b92915050565b61153d81611230565b811461154857600080fd5b50565b60008135905061155a81611534565b92915050565b600080600080600080600080610100898b03121561158157611580610e66565b5b600061158f8b828c0161154b565b985050602089013567ffffffffffffffff8111156115b0576115af610e6b565b5b6115bc8b828c01610f88565b975050604089013567ffffffffffffffff8111156115dd576115dc610e6b565b5b6115e98b828c01610f88565b965050606089013567ffffffffffffffff81111561160a57611609610e6b565b5b6116168b828c01610f88565b955050608089013567ffffffffffffffff81111561163757611636610e6b565b5b6116438b828c01610f88565b94505060a089013567ffffffffffffffff81111561166457611663610e6b565b5b6116708b828c01610f88565b93505060c089013567ffffffffffffffff81111561169157611690610e6b565b5b61169d8b828c01610f88565b92505060e089013567ffffffffffffffff8111156116be576116bd610e6b565b5b6116ca8b828c01610f88565b9150509295985092959890939650565b7f4e487b7100000000000000000000000000000000000000000000000000000000600052602260045260246000fd5b6000600282049050600182168061172157607f821691505b602082108103611734576117336116da565b5b50919050565b60008190508160005260206000209050919050565b60006020601f8301049050919050565b600082821b905092915050565b60006008830261179c7fffffffffffffffffffffffffffffffffffffffffffffffffffffffffffffffff8261175f565b6117a6868361175f565b95508019841693508086168417925050509392505050565b6000819050919050565b60006117e36117de6117d9846111cb565b6117be565b6111cb565b9050919050565b6000819050919050565b6117fd836117c8565b611811611809826117ea565b84845461176c565b825550505050565b600090565b611826611819565b6118318184846117f4565b505050565b5b818110156118555761184a60008261181e565b600181019050611837565b5050565b601f82111561189a5761186b8161173a565b6118748461174f565b81016020851015611883578190505b61189761188f8561174f565b830182611836565b50505b505050565b600082821c905092915050565b60006118bd6000198460080261189f565b1980831691505092915050565b60006118d683836118ac565b9150826002028217905092915050565b6118ef8261114c565b67ffffffffffffffff81111561190857611907610e8b565b5b6119128254611709565b61191d828285611859565b600060209050601f831160018114611950576000841561193e578287015190505b61194885826118ca565b8655506119b0565b601f19841661195e8661173a565b60005b8281101561198657848901518255600182019150602085019450602081019050611961565b868310156119a3578489015161199f601f8916826118ac565b8355505b6001600288020188555050505b50505050505056fea264697066735822122086f7f3c0bc1b006c7afc832273a11dc1ce5a73d0911ac1d31065323fed2bb12564736f6c63430008110033",
			"opcodes": "PUSH1 0x80 PUSH1 0x40 MSTORE CALLVALUE DUP1 ISZERO PUSH2 0x10 JUMPI PUSH1 0x0 DUP1 REVERT JUMPDEST POP PUSH2 0x19EE DUP1 PUSH2 0x20 PUSH1 0x0 CODECOPY PUSH1 0x0 RETURN INVALID PUSH1 0x80 PUSH1 0x40 MSTORE CALLVALUE DUP1 ISZERO PUSH2 0x10 JUMPI PUSH1 0x0 DUP1 REVERT JUMPDEST POP PUSH1 0x4 CALLDATASIZE LT PUSH2 0x4B JUMPI PUSH1 0x0 CALLDATALOAD PUSH1 0xE0 SHR DUP1 PUSH3 0x46A65A EQ PUSH2 0x50 JUMPI DUP1 PUSH4 0x201CB0B6 EQ PUSH2 0x6C JUMPI DUP1 PUSH4 0xA526B217 EQ PUSH2 0x8A JUMPI DUP1 PUSH4 0xF74258F9 EQ PUSH2 0xBA JUMPI JUMPDEST PUSH1 0x0 DUP1 REVERT JUMPDEST PUSH2 0x6A PUSH1 0x4 DUP1 CALLDATASIZE SUB DUP2 ADD SWAP1 PUSH2 0x65 SWAP2 SWAP1 PUSH2 0xFB6 JUMP JUMPDEST PUSH2 0xD6 JUMP JUMPDEST STOP JUMPDEST PUSH2 0x74 PUSH2 0x1B3 JUMP JUMPDEST PUSH1 0x40 MLOAD PUSH2 0x81 SWAP2 SWAP1 PUSH2 0x14E8 JUMP JUMPDEST PUSH1 0x40 MLOAD DUP1 SWAP2 SUB SWAP1 RETURN JUMPDEST PUSH2 0xA4 PUSH1 0x4 DUP1 CALLDATASIZE SUB DUP2 ADD SWAP1 PUSH2 0x9F SWAP2 SWAP1 PUSH2 0xFB6 JUMP JUMPDEST PUSH2 0xB62 JUMP JUMPDEST PUSH1 0x40 MLOAD PUSH2 0xB1 SWAP2 SWAP1 PUSH2 0x1519 JUMP JUMPDEST PUSH1 0x40 MLOAD DUP1 SWAP2 SUB SWAP1 RETURN JUMPDEST PUSH2 0xD4 PUSH1 0x4 DUP1 CALLDATASIZE SUB DUP2 ADD SWAP1 PUSH2 0xCF SWAP2 SWAP1 PUSH2 0x1560 JUMP JUMPDEST PUSH2 0xC45 JUMP JUMPDEST STOP JUMPDEST PUSH1 0x0 DUP1 PUSH1 0x0 CALLER PUSH20 0xFFFFFFFFFFFFFFFFFFFFFFFFFFFFFFFFFFFFFFFF AND PUSH20 0xFFFFFFFFFFFFFFFFFFFFFFFFFFFFFFFFFFFFFFFF AND DUP2 MSTORE PUSH1 0x20 ADD SWAP1 DUP2 MSTORE PUSH1 0x20 ADD PUSH1 0x0 KECCAK256 SWAP1 POP DUP9 DUP2 PUSH1 0x0 ADD SWAP1 DUP2 PUSH2 0x129 SWAP2 SWAP1 PUSH2 0x18E6 JUMP JUMPDEST POP DUP8 DUP2 PUSH1 0x1 ADD SWAP1 DUP2 PUSH2 0x13B SWAP2 SWAP1 PUSH2 0x18E6 JUMP JUMPDEST POP DUP7 DUP2 PUSH1 0x2 ADD SWAP1 DUP2 PUSH2 0x14D SWAP2 SWAP1 PUSH2 0x18E6 JUMP JUMPDEST POP DUP6 DUP2 PUSH1 0x3 ADD SWAP1 DUP2 PUSH2 0x15F SWAP2 SWAP1 PUSH2 0x18E6 JUMP JUMPDEST POP DUP5 DUP2 PUSH1 0x4 ADD SWAP1 DUP2 PUSH2 0x171 SWAP2 SWAP1 PUSH2 0x18E6 JUMP JUMPDEST POP DUP4 DUP2 PUSH1 0x5 ADD SWAP1 DUP2 PUSH2 0x183 SWAP2 SWAP1 PUSH2 0x18E6 JUMP JUMPDEST POP DUP3 DUP2 PUSH1 0x6 ADD SWAP1 DUP2 PUSH2 0x195 SWAP2 SWAP1 PUSH2 0x18E6 JUMP JUMPDEST POP DUP2 DUP2 PUSH1 0x7 ADD SWAP1 DUP2 PUSH2 0x1A7 SWAP2 SWAP1 PUSH2 0x18E6 JUMP JUMPDEST POP POP POP POP POP POP POP POP POP POP JUMP JUMPDEST PUSH2 0x1BB PUSH2 0xE09 JUMP JUMPDEST PUSH1 0x0 DUP1 CALLER PUSH20 0xFFFFFFFFFFFFFFFFFFFFFFFFFFFFFFFFFFFFFFFF AND PUSH20 0xFFFFFFFFFFFFFFFFFFFFFFFFFFFFFFFFFFFFFFFF AND DUP2 MSTORE PUSH1 0x20 ADD SWAP1 DUP2 MSTORE PUSH1 0x20 ADD PUSH1 0x0 KECCAK256 PUSH1 0x40 MLOAD DUP1 PUSH2 0x140 ADD PUSH1 0x40 MSTORE SWAP1 DUP2 PUSH1 0x0 DUP3 ADD DUP1 SLOAD PUSH2 0x215 SWAP1 PUSH2 0x1709 JUMP JUMPDEST DUP1 PUSH1 0x1F ADD PUSH1 0x20 DUP1 SWAP2 DIV MUL PUSH1 0x20 ADD PUSH1 0x40 MLOAD SWAP1 DUP2 ADD PUSH1 0x40 MSTORE DUP1 SWAP3 SWAP2 SWAP1 DUP2 DUP2 MSTORE PUSH1 0x20 ADD DUP3 DUP1 SLOAD PUSH2 0x241 SWAP1 PUSH2 0x1709 JUMP JUMPDEST DUP1 ISZERO PUSH2 0x28E JUMPI DUP1 PUSH1 0x1F LT PUSH2 0x263 JUMPI PUSH2 0x100 DUP1 DUP4 SLOAD DIV MUL DUP4 MSTORE SWAP2 PUSH1 0x20 ADD SWAP2 PUSH2 0x28E JUMP JUMPDEST DUP3 ADD SWAP2 SWAP1 PUSH1 0x0 MSTORE PUSH1 0x20 PUSH1 0x0 KECCAK256 SWAP1 JUMPDEST DUP2 SLOAD DUP2 MSTORE SWAP1 PUSH1 0x1 ADD SWAP1 PUSH1 0x20 ADD DUP1 DUP4 GT PUSH2 0x271 JUMPI DUP3 SWAP1 SUB PUSH1 0x1F AND DUP3 ADD SWAP2 JUMPDEST POP POP POP POP POP DUP2 MSTORE PUSH1 0x20 ADD PUSH1 0x1 DUP3 ADD DUP1 SLOAD PUSH2 0x2A7 SWAP1 PUSH2 0x1709 JUMP JUMPDEST DUP1 PUSH1 0x1F ADD PUSH1 0x20 DUP1 SWAP2 DIV MUL PUSH1 0x20 ADD PUSH1 0x40 MLOAD SWAP1 DUP2 ADD PUSH1 0x40 MSTORE DUP1 SWAP3 SWAP2 SWAP1 DUP2 DUP2 MSTORE PUSH1 0x20 ADD DUP3 DUP1 SLOAD PUSH2 0x2D3 SWAP1 PUSH2 0x1709 JUMP JUMPDEST DUP1 ISZERO PUSH2 0x320 JUMPI DUP1 PUSH1 0x1F LT PUSH2 0x2F5 JUMPI PUSH2 0x100 DUP1 DUP4 SLOAD DIV MUL DUP4 MSTORE SWAP2 PUSH1 0x20 ADD SWAP2 PUSH2 0x320 JUMP JUMPDEST DUP3 ADD SWAP2 SWAP1 PUSH1 0x0 MSTORE PUSH1 0x20 PUSH1 0x0 KECCAK256 SWAP1 JUMPDEST DUP2 SLOAD DUP2 MSTORE SWAP1 PUSH1 0x1 ADD SWAP1 PUSH1 0x20 ADD DUP1 DUP4 GT PUSH2 0x303 JUMPI DUP3 SWAP1 SUB PUSH1 0x1F AND DUP3 ADD SWAP2 JUMPDEST POP POP POP POP POP DUP2 MSTORE PUSH1 0x20 ADD PUSH1 0x2 DUP3 ADD DUP1 SLOAD PUSH2 0x339 SWAP1 PUSH2 0x1709 JUMP JUMPDEST DUP1 PUSH1 0x1F ADD PUSH1 0x20 DUP1 SWAP2 DIV MUL PUSH1 0x20 ADD PUSH1 0x40 MLOAD SWAP1 DUP2 ADD PUSH1 0x40 MSTORE DUP1 SWAP3 SWAP2 SWAP1 DUP2 DUP2 MSTORE PUSH1 0x20 ADD DUP3 DUP1 SLOAD PUSH2 0x365 SWAP1 PUSH2 0x1709 JUMP JUMPDEST DUP1 ISZERO PUSH2 0x3B2 JUMPI DUP1 PUSH1 0x1F LT PUSH2 0x387 JUMPI PUSH2 0x100 DUP1 DUP4 SLOAD DIV MUL DUP4 MSTORE SWAP2 PUSH1 0x20 ADD SWAP2 PUSH2 0x3B2 JUMP JUMPDEST DUP3 ADD SWAP2 SWAP1 PUSH1 0x0 MSTORE PUSH1 0x20 PUSH1 0x0 KECCAK256 SWAP1 JUMPDEST DUP2 SLOAD DUP2 MSTORE SWAP1 PUSH1 0x1 ADD SWAP1 PUSH1 0x20 ADD DUP1 DUP4 GT PUSH2 0x395 JUMPI DUP3 SWAP1 SUB PUSH1 0x1F AND DUP3 ADD SWAP2 JUMPDEST POP POP POP POP POP DUP2 MSTORE PUSH1 0x20 ADD PUSH1 0x3 DUP3 ADD DUP1 SLOAD PUSH2 0x3CB SWAP1 PUSH2 0x1709 JUMP JUMPDEST DUP1 PUSH1 0x1F ADD PUSH1 0x20 DUP1 SWAP2 DIV MUL PUSH1 0x20 ADD PUSH1 0x40 MLOAD SWAP1 DUP2 ADD PUSH1 0x40 MSTORE DUP1 SWAP3 SWAP2 SWAP1 DUP2 DUP2 MSTORE PUSH1 0x20 ADD DUP3 DUP1 SLOAD PUSH2 0x3F7 SWAP1 PUSH2 0x1709 JUMP JUMPDEST DUP1 ISZERO PUSH2 0x444 JUMPI DUP1 PUSH1 0x1F LT PUSH2 0x419 JUMPI PUSH2 0x100 DUP1 DUP4 SLOAD DIV MUL DUP4 MSTORE SWAP2 PUSH1 0x20 ADD SWAP2 PUSH2 0x444 JUMP JUMPDEST DUP3 ADD SWAP2 SWAP1 PUSH1 0x0 MSTORE PUSH1 0x20 PUSH1 0x0 KECCAK256 SWAP1 JUMPDEST DUP2 SLOAD DUP2 MSTORE SWAP1 PUSH1 0x1 ADD SWAP1 PUSH1 0x20 ADD DUP1 DUP4 GT PUSH2 0x427 JUMPI DUP3 SWAP1 SUB PUSH1 0x1F AND DUP3 ADD SWAP2 JUMPDEST POP POP POP POP POP DUP2 MSTORE PUSH1 0x20 ADD PUSH1 0x4 DUP3 ADD DUP1 SLOAD PUSH2 0x45D SWAP1 PUSH2 0x1709 JUMP JUMPDEST DUP1 PUSH1 0x1F ADD PUSH1 0x20 DUP1 SWAP2 DIV MUL PUSH1 0x20 ADD PUSH1 0x40 MLOAD SWAP1 DUP2 ADD PUSH1 0x40 MSTORE DUP1 SWAP3 SWAP2 SWAP1 DUP2 DUP2 MSTORE PUSH1 0x20 ADD DUP3 DUP1 SLOAD PUSH2 0x489 SWAP1 PUSH2 0x1709 JUMP JUMPDEST DUP1 ISZERO PUSH2 0x4D6 JUMPI DUP1 PUSH1 0x1F LT PUSH2 0x4AB JUMPI PUSH2 0x100 DUP1 DUP4 SLOAD DIV MUL DUP4 MSTORE SWAP2 PUSH1 0x20 ADD SWAP2 PUSH2 0x4D6 JUMP JUMPDEST DUP3 ADD SWAP2 SWAP1 PUSH1 0x0 MSTORE PUSH1 0x20 PUSH1 0x0 KECCAK256 SWAP1 JUMPDEST DUP2 SLOAD DUP2 MSTORE SWAP1 PUSH1 0x1 ADD SWAP1 PUSH1 0x20 ADD DUP1 DUP4 GT PUSH2 0x4B9 JUMPI DUP3 SWAP1 SUB PUSH1 0x1F AND DUP3 ADD SWAP2 JUMPDEST POP POP POP POP POP DUP2 MSTORE PUSH1 0x20 ADD PUSH1 0x5 DUP3 ADD DUP1 SLOAD PUSH2 0x4EF SWAP1 PUSH2 0x1709 JUMP JUMPDEST DUP1 PUSH1 0x1F ADD PUSH1 0x20 DUP1 SWAP2 DIV MUL PUSH1 0x20 ADD PUSH1 0x40 MLOAD SWAP1 DUP2 ADD PUSH1 0x40 MSTORE DUP1 SWAP3 SWAP2 SWAP1 DUP2 DUP2 MSTORE PUSH1 0x20 ADD DUP3 DUP1 SLOAD PUSH2 0x51B SWAP1 PUSH2 0x1709 JUMP JUMPDEST DUP1 ISZERO PUSH2 0x568 JUMPI DUP1 PUSH1 0x1F LT PUSH2 0x53D JUMPI PUSH2 0x100 DUP1 DUP4 SLOAD DIV MUL DUP4 MSTORE SWAP2 PUSH1 0x20 ADD SWAP2 PUSH2 0x568 JUMP JUMPDEST DUP3 ADD SWAP2 SWAP1 PUSH1 0x0 MSTORE PUSH1 0x20 PUSH1 0x0 KECCAK256 SWAP1 JUMPDEST DUP2 SLOAD DUP2 MSTORE SWAP1 PUSH1 0x1 ADD SWAP1 PUSH1 0x20 ADD DUP1 DUP4 GT PUSH2 0x54B JUMPI DUP3 SWAP1 SUB PUSH1 0x1F AND DUP3 ADD SWAP2 JUMPDEST POP POP POP POP POP DUP2 MSTORE PUSH1 0x20 ADD PUSH1 0x6 DUP3 ADD DUP1 SLOAD PUSH2 0x581 SWAP1 PUSH2 0x1709 JUMP JUMPDEST DUP1 PUSH1 0x1F ADD PUSH1 0x20 DUP1 SWAP2 DIV MUL PUSH1 0x20 ADD PUSH1 0x40 MLOAD SWAP1 DUP2 ADD PUSH1 0x40 MSTORE DUP1 SWAP3 SWAP2 SWAP1 DUP2 DUP2 MSTORE PUSH1 0x20 ADD DUP3 DUP1 SLOAD PUSH2 0x5AD SWAP1 PUSH2 0x1709 JUMP JUMPDEST DUP1 ISZERO PUSH2 0x5FA JUMPI DUP1 PUSH1 0x1F LT PUSH2 0x5CF JUMPI PUSH2 0x100 DUP1 DUP4 SLOAD DIV MUL DUP4 MSTORE SWAP2 PUSH1 0x20 ADD SWAP2 PUSH2 0x5FA JUMP JUMPDEST DUP3 ADD SWAP2 SWAP1 PUSH1 0x0 MSTORE PUSH1 0x20 PUSH1 0x0 KECCAK256 SWAP1 JUMPDEST DUP2 SLOAD DUP2 MSTORE SWAP1 PUSH1 0x1 ADD SWAP1 PUSH1 0x20 ADD DUP1 DUP4 GT PUSH2 0x5DD JUMPI DUP3 SWAP1 SUB PUSH1 0x1F AND DUP3 ADD SWAP2 JUMPDEST POP POP POP POP POP DUP2 MSTORE PUSH1 0x20 ADD PUSH1 0x7 DUP3 ADD DUP1 SLOAD PUSH2 0x613 SWAP1 PUSH2 0x1709 JUMP JUMPDEST DUP1 PUSH1 0x1F ADD PUSH1 0x20 DUP1 SWAP2 DIV MUL PUSH1 0x20 ADD PUSH1 0x40 MLOAD SWAP1 DUP2 ADD PUSH1 0x40 MSTORE DUP1 SWAP3 SWAP2 SWAP1 DUP2 DUP2 MSTORE PUSH1 0x20 ADD DUP3 DUP1 SLOAD PUSH2 0x63F SWAP1 PUSH2 0x1709 JUMP JUMPDEST DUP1 ISZERO PUSH2 0x68C JUMPI DUP1 PUSH1 0x1F LT PUSH2 0x661 JUMPI PUSH2 0x100 DUP1 DUP4 SLOAD DIV MUL DUP4 MSTORE SWAP2 PUSH1 0x20 ADD SWAP2 PUSH2 0x68C JUMP JUMPDEST DUP3 ADD SWAP2 SWAP1 PUSH1 0x0 MSTORE PUSH1 0x20 PUSH1 0x0 KECCAK256 SWAP1 JUMPDEST DUP2 SLOAD DUP2 MSTORE SWAP1 PUSH1 0x1 ADD SWAP1 PUSH1 0x20 ADD DUP1 DUP4 GT PUSH2 0x66F JUMPI DUP3 SWAP1 SUB PUSH1 0x1F AND DUP3 ADD SWAP2 JUMPDEST POP POP POP POP POP DUP2 MSTORE PUSH1 0x20 ADD PUSH1 0x8 DUP3 ADD SLOAD DUP2 MSTORE PUSH1 0x20 ADD PUSH1 0x9 DUP3 ADD DUP1 SLOAD DUP1 PUSH1 0x20 MUL PUSH1 0x20 ADD PUSH1 0x40 MLOAD SWAP1 DUP2 ADD PUSH1 0x40 MSTORE DUP1 SWAP3 SWAP2 SWAP1 DUP2 DUP2 MSTORE PUSH1 0x20 ADD PUSH1 0x0 SWAP1 JUMPDEST DUP3 DUP3 LT ISZERO PUSH2 0xB55 JUMPI DUP4 DUP3 SWAP1 PUSH1 0x0 MSTORE PUSH1 0x20 PUSH1 0x0 KECCAK256 SWAP1 PUSH1 0x9 MUL ADD PUSH1 0x40 MLOAD DUP1 PUSH2 0x120 ADD PUSH1 0x40 MSTORE SWAP1 DUP2 PUSH1 0x0 DUP3 ADD SLOAD DUP2 MSTORE PUSH1 0x20 ADD PUSH1 0x1 DUP3 ADD PUSH1 0x0 SWAP1 SLOAD SWAP1 PUSH2 0x100 EXP SWAP1 DIV PUSH20 0xFFFFFFFFFFFFFFFFFFFFFFFFFFFFFFFFFFFFFFFF AND PUSH20 0xFFFFFFFFFFFFFFFFFFFFFFFFFFFFFFFFFFFFFFFF AND PUSH20 0xFFFFFFFFFFFFFFFFFFFFFFFFFFFFFFFFFFFFFFFF AND DUP2 MSTORE PUSH1 0x20 ADD PUSH1 0x2 DUP3 ADD DUP1 SLOAD PUSH2 0x758 SWAP1 PUSH2 0x1709 JUMP JUMPDEST DUP1 PUSH1 0x1F ADD PUSH1 0x20 DUP1 SWAP2 DIV MUL PUSH1 0x20 ADD PUSH1 0x40 MLOAD SWAP1 DUP2 ADD PUSH1 0x40 MSTORE DUP1 SWAP3 SWAP2 SWAP1 DUP2 DUP2 MSTORE PUSH1 0x20 ADD DUP3 DUP1 SLOAD PUSH2 0x784 SWAP1 PUSH2 0x1709 JUMP JUMPDEST DUP1 ISZERO PUSH2 0x7D1 JUMPI DUP1 PUSH1 0x1F LT PUSH2 0x7A6 JUMPI PUSH2 0x100 DUP1 DUP4 SLOAD DIV MUL DUP4 MSTORE SWAP2 PUSH1 0x20 ADD SWAP2 PUSH2 0x7D1 JUMP JUMPDEST DUP3 ADD SWAP2 SWAP1 PUSH1 0x0 MSTORE PUSH1 0x20 PUSH1 0x0 KECCAK256 SWAP1 JUMPDEST DUP2 SLOAD DUP2 MSTORE SWAP1 PUSH1 0x1 ADD SWAP1 PUSH1 0x20 ADD DUP1 DUP4 GT PUSH2 0x7B4 JUMPI DUP3 SWAP1 SUB PUSH1 0x1F AND DUP3 ADD SWAP2 JUMPDEST POP POP POP POP POP DUP2 MSTORE PUSH1 0x20 ADD PUSH1 0x3 DUP3 ADD DUP1 SLOAD PUSH2 0x7EA SWAP1 PUSH2 0x1709 JUMP JUMPDEST DUP1 PUSH1 0x1F ADD PUSH1 0x20 DUP1 SWAP2 DIV MUL PUSH1 0x20 ADD PUSH1 0x40 MLOAD SWAP1 DUP2 ADD PUSH1 0x40 MSTORE DUP1 SWAP3 SWAP2 SWAP1 DUP2 DUP2 MSTORE PUSH1 0x20 ADD DUP3 DUP1 SLOAD PUSH2 0x816 SWAP1 PUSH2 0x1709 JUMP JUMPDEST DUP1 ISZERO PUSH2 0x863 JUMPI DUP1 PUSH1 0x1F LT PUSH2 0x838 JUMPI PUSH2 0x100 DUP1 DUP4 SLOAD DIV MUL DUP4 MSTORE SWAP2 PUSH1 0x20 ADD SWAP2 PUSH2 0x863 JUMP JUMPDEST DUP3 ADD SWAP2 SWAP1 PUSH1 0x0 MSTORE PUSH1 0x20 PUSH1 0x0 KECCAK256 SWAP1 JUMPDEST DUP2 SLOAD DUP2 MSTORE SWAP1 PUSH1 0x1 ADD SWAP1 PUSH1 0x20 ADD DUP1 DUP4 GT PUSH2 0x846 JUMPI DUP3 SWAP1 SUB PUSH1 0x1F AND DUP3 ADD SWAP2 JUMPDEST POP POP POP POP POP DUP2 MSTORE PUSH1 0x20 ADD PUSH1 0x4 DUP3 ADD DUP1 SLOAD PUSH2 0x87C SWAP1 PUSH2 0x1709 JUMP JUMPDEST DUP1 PUSH1 0x1F ADD PUSH1 0x20 DUP1 SWAP2 DIV MUL PUSH1 0x20 ADD PUSH1 0x40 MLOAD SWAP1 DUP2 ADD PUSH1 0x40 MSTORE DUP1 SWAP3 SWAP2 SWAP1 DUP2 DUP2 MSTORE PUSH1 0x20 ADD DUP3 DUP1 SLOAD PUSH2 0x8A8 SWAP1 PUSH2 0x1709 JUMP JUMPDEST DUP1 ISZERO PUSH2 0x8F5 JUMPI DUP1 PUSH1 0x1F LT PUSH2 0x8CA JUMPI PUSH2 0x100 DUP1 DUP4 SLOAD DIV MUL DUP4 MSTORE SWAP2 PUSH1 0x20 ADD SWAP2 PUSH2 0x8F5 JUMP JUMPDEST DUP3 ADD SWAP2 SWAP1 PUSH1 0x0 MSTORE PUSH1 0x20 PUSH1 0x0 KECCAK256 SWAP1 JUMPDEST DUP2 SLOAD DUP2 MSTORE SWAP1 PUSH1 0x1 ADD SWAP1 PUSH1 0x20 ADD DUP1 DUP4 GT PUSH2 0x8D8 JUMPI DUP3 SWAP1 SUB PUSH1 0x1F AND DUP3 ADD SWAP2 JUMPDEST POP POP POP POP POP DUP2 MSTORE PUSH1 0x20 ADD PUSH1 0x5 DUP3 ADD DUP1 SLOAD PUSH2 0x90E SWAP1 PUSH2 0x1709 JUMP JUMPDEST DUP1 PUSH1 0x1F ADD PUSH1 0x20 DUP1 SWAP2 DIV MUL PUSH1 0x20 ADD PUSH1 0x40 MLOAD SWAP1 DUP2 ADD PUSH1 0x40 MSTORE DUP1 SWAP3 SWAP2 SWAP1 DUP2 DUP2 MSTORE PUSH1 0x20 ADD DUP3 DUP1 SLOAD PUSH2 0x93A SWAP1 PUSH2 0x1709 JUMP JUMPDEST DUP1 ISZERO PUSH2 0x987 JUMPI DUP1 PUSH1 0x1F LT PUSH2 0x95C JUMPI PUSH2 0x100 DUP1 DUP4 SLOAD DIV MUL DUP4 MSTORE SWAP2 PUSH1 0x20 ADD SWAP2 PUSH2 0x987 JUMP JUMPDEST DUP3 ADD SWAP2 SWAP1 PUSH1 0x0 MSTORE PUSH1 0x20 PUSH1 0x0 KECCAK256 SWAP1 JUMPDEST DUP2 SLOAD DUP2 MSTORE SWAP1 PUSH1 0x1 ADD SWAP1 PUSH1 0x20 ADD DUP1 DUP4 GT PUSH2 0x96A JUMPI DUP3 SWAP1 SUB PUSH1 0x1F AND DUP3 ADD SWAP2 JUMPDEST POP POP POP POP POP DUP2 MSTORE PUSH1 0x20 ADD PUSH1 0x6 DUP3 ADD DUP1 SLOAD PUSH2 0x9A0 SWAP1 PUSH2 0x1709 JUMP JUMPDEST DUP1 PUSH1 0x1F ADD PUSH1 0x20 DUP1 SWAP2 DIV MUL PUSH1 0x20 ADD PUSH1 0x40 MLOAD SWAP1 DUP2 ADD PUSH1 0x40 MSTORE DUP1 SWAP3 SWAP2 SWAP1 DUP2 DUP2 MSTORE PUSH1 0x20 ADD DUP3 DUP1 SLOAD PUSH2 0x9CC SWAP1 PUSH2 0x1709 JUMP JUMPDEST DUP1 ISZERO PUSH2 0xA19 JUMPI DUP1 PUSH1 0x1F LT PUSH2 0x9EE JUMPI PUSH2 0x100 DUP1 DUP4 SLOAD DIV MUL DUP4 MSTORE SWAP2 PUSH1 0x20 ADD SWAP2 PUSH2 0xA19 JUMP JUMPDEST DUP3 ADD SWAP2 SWAP1 PUSH1 0x0 MSTORE PUSH1 0x20 PUSH1 0x0 KECCAK256 SWAP1 JUMPDEST DUP2 SLOAD DUP2 MSTORE SWAP1 PUSH1 0x1 ADD SWAP1 PUSH1 0x20 ADD DUP1 DUP4 GT PUSH2 0x9FC JUMPI DUP3 SWAP1 SUB PUSH1 0x1F AND DUP3 ADD SWAP2 JUMPDEST POP POP POP POP POP DUP2 MSTORE PUSH1 0x20 ADD PUSH1 0x7 DUP3 ADD DUP1 SLOAD PUSH2 0xA32 SWAP1 PUSH2 0x1709 JUMP JUMPDEST DUP1 PUSH1 0x1F ADD PUSH1 0x20 DUP1 SWAP2 DIV MUL PUSH1 0x20 ADD PUSH1 0x40 MLOAD SWAP1 DUP2 ADD PUSH1 0x40 MSTORE DUP1 SWAP3 SWAP2 SWAP1 DUP2 DUP2 MSTORE PUSH1 0x20 ADD DUP3 DUP1 SLOAD PUSH2 0xA5E SWAP1 PUSH2 0x1709 JUMP JUMPDEST DUP1 ISZERO PUSH2 0xAAB JUMPI DUP1 PUSH1 0x1F LT PUSH2 0xA80 JUMPI PUSH2 0x100 DUP1 DUP4 SLOAD DIV MUL DUP4 MSTORE SWAP2 PUSH1 0x20 ADD SWAP2 PUSH2 0xAAB JUMP JUMPDEST DUP3 ADD SWAP2 SWAP1 PUSH1 0x0 MSTORE PUSH1 0x20 PUSH1 0x0 KECCAK256 SWAP1 JUMPDEST DUP2 SLOAD DUP2 MSTORE SWAP1 PUSH1 0x1 ADD SWAP1 PUSH1 0x20 ADD DUP1 DUP4 GT PUSH2 0xA8E JUMPI DUP3 SWAP1 SUB PUSH1 0x1F AND DUP3 ADD SWAP2 JUMPDEST POP POP POP POP POP DUP2 MSTORE PUSH1 0x20 ADD PUSH1 0x8 DUP3 ADD DUP1 SLOAD PUSH2 0xAC4 SWAP1 PUSH2 0x1709 JUMP JUMPDEST DUP1 PUSH1 0x1F ADD PUSH1 0x20 DUP1 SWAP2 DIV MUL PUSH1 0x20 ADD PUSH1 0x40 MLOAD SWAP1 DUP2 ADD PUSH1 0x40 MSTORE DUP1 SWAP3 SWAP2 SWAP1 DUP2 DUP2 MSTORE PUSH1 0x20 ADD DUP3 DUP1 SLOAD PUSH2 0xAF0 SWAP1 PUSH2 0x1709 JUMP JUMPDEST DUP1 ISZERO PUSH2 0xB3D JUMPI DUP1 PUSH1 0x1F LT PUSH2 0xB12 JUMPI PUSH2 0x100 DUP1 DUP4 SLOAD DIV MUL DUP4 MSTORE SWAP2 PUSH1 0x20 ADD SWAP2 PUSH2 0xB3D JUMP JUMPDEST DUP3 ADD SWAP2 SWAP1 PUSH1 0x0 MSTORE PUSH1 0x20 PUSH1 0x0 KECCAK256 SWAP1 JUMPDEST DUP2 SLOAD DUP2 MSTORE SWAP1 PUSH1 0x1 ADD SWAP1 PUSH1 0x20 ADD DUP1 DUP4 GT PUSH2 0xB20 JUMPI DUP3 SWAP1 SUB PUSH1 0x1F AND DUP3 ADD SWAP2 JUMPDEST POP POP POP POP POP DUP2 MSTORE POP POP DUP2 MSTORE PUSH1 0x20 ADD SWAP1 PUSH1 0x1 ADD SWAP1 PUSH2 0x6C4 JUMP JUMPDEST POP POP POP POP DUP2 MSTORE POP POP SWAP1 POP SWAP1 JUMP JUMPDEST PUSH1 0x0 DUP1 PUSH1 0x0 DUP1 CALLER PUSH20 0xFFFFFFFFFFFFFFFFFFFFFFFFFFFFFFFFFFFFFFFF AND PUSH20 0xFFFFFFFFFFFFFFFFFFFFFFFFFFFFFFFFFFFFFFFF AND DUP2 MSTORE PUSH1 0x20 ADD SWAP1 DUP2 MSTORE PUSH1 0x20 ADD PUSH1 0x0 KECCAK256 SWAP1 POP DUP10 DUP2 PUSH1 0x0 ADD SWAP1 DUP2 PUSH2 0xBB6 SWAP2 SWAP1 PUSH2 0x18E6 JUMP JUMPDEST POP DUP9 DUP2 PUSH1 0x1 ADD SWAP1 DUP2 PUSH2 0xBC8 SWAP2 SWAP1 PUSH2 0x18E6 JUMP JUMPDEST POP DUP8 DUP2 PUSH1 0x2 ADD SWAP1 DUP2 PUSH2 0xBDA SWAP2 SWAP1 PUSH2 0x18E6 JUMP JUMPDEST POP DUP7 DUP2 PUSH1 0x3 ADD SWAP1 DUP2 PUSH2 0xBEC SWAP2 SWAP1 PUSH2 0x18E6 JUMP JUMPDEST POP DUP6 DUP2 PUSH1 0x4 ADD SWAP1 DUP2 PUSH2 0xBFE SWAP2 SWAP1 PUSH2 0x18E6 JUMP JUMPDEST POP DUP5 DUP2 PUSH1 0x5 ADD SWAP1 DUP2 PUSH2 0xC10 SWAP2 SWAP1 PUSH2 0x18E6 JUMP JUMPDEST POP DUP4 DUP2 PUSH1 0x6 ADD SWAP1 DUP2 PUSH2 0xC22 SWAP2 SWAP1 PUSH2 0x18E6 JUMP JUMPDEST POP DUP3 DUP2 PUSH1 0x7 ADD SWAP1 DUP2 PUSH2 0xC34 SWAP2 SWAP1 PUSH2 0x18E6 JUMP JUMPDEST POP CALLER SWAP2 POP POP SWAP9 SWAP8 POP POP POP POP POP POP POP POP JUMP JUMPDEST PUSH1 0x0 DUP1 PUSH1 0x0 DUP11 PUSH20 0xFFFFFFFFFFFFFFFFFFFFFFFFFFFFFFFFFFFFFFFF AND PUSH20 0xFFFFFFFFFFFFFFFFFFFFFFFFFFFFFFFFFFFFFFFF AND DUP2 MSTORE PUSH1 0x20 ADD SWAP1 DUP2 MSTORE PUSH1 0x20 ADD PUSH1 0x0 KECCAK256 SWAP1 POP PUSH1 0x0 PUSH1 0x40 MLOAD DUP1 PUSH2 0x120 ADD PUSH1 0x40 MSTORE DUP1 TIMESTAMP DUP2 MSTORE PUSH1 0x20 ADD CALLER PUSH20 0xFFFFFFFFFFFFFFFFFFFFFFFFFFFFFFFFFFFFFFFF AND DUP2 MSTORE PUSH1 0x20 ADD DUP11 DUP2 MSTORE PUSH1 0x20 ADD DUP10 DUP2 MSTORE PUSH1 0x20 ADD DUP9 DUP2 MSTORE PUSH1 0x20 ADD DUP8 DUP2 MSTORE PUSH1 0x20 ADD DUP7 DUP2 MSTORE PUSH1 0x20 ADD DUP6 DUP2 MSTORE PUSH1 0x20 ADD DUP5 DUP2 MSTORE POP SWAP1 POP DUP2 PUSH1 0x9 ADD DUP2 SWAP1 DUP1 PUSH1 0x1 DUP2 SLOAD ADD DUP1 DUP3 SSTORE DUP1 SWAP2 POP POP PUSH1 0x1 SWAP1 SUB SWAP1 PUSH1 0x0 MSTORE PUSH1 0x20 PUSH1 0x0 KECCAK256 SWAP1 PUSH1 0x9 MUL ADD PUSH1 0x0 SWAP1 SWAP2 SWAP1 SWAP2 SWAP1 SWAP2 POP PUSH1 0x0 DUP3 ADD MLOAD DUP2 PUSH1 0x0 ADD SSTORE PUSH1 0x20 DUP3 ADD MLOAD DUP2 PUSH1 0x1 ADD PUSH1 0x0 PUSH2 0x100 EXP DUP2 SLOAD DUP2 PUSH20 0xFFFFFFFFFFFFFFFFFFFFFFFFFFFFFFFFFFFFFFFF MUL NOT AND SWAP1 DUP4 PUSH20 0xFFFFFFFFFFFFFFFFFFFFFFFFFFFFFFFFFFFFFFFF AND MUL OR SWAP1 SSTORE POP PUSH1 0x40 DUP3 ADD MLOAD DUP2 PUSH1 0x2 ADD SWAP1 DUP2 PUSH2 0xD75 SWAP2 SWAP1 PUSH2 0x18E6 JUMP JUMPDEST POP PUSH1 0x60 DUP3 ADD MLOAD DUP2 PUSH1 0x3 ADD SWAP1 DUP2 PUSH2 0xD8B SWAP2 SWAP1 PUSH2 0x18E6 JUMP JUMPDEST POP PUSH1 0x80 DUP3 ADD MLOAD DUP2 PUSH1 0x4 ADD SWAP1 DUP2 PUSH2 0xDA1 SWAP2 SWAP1 PUSH2 0x18E6 JUMP JUMPDEST POP PUSH1 0xA0 DUP3 ADD MLOAD DUP2 PUSH1 0x5 ADD SWAP1 DUP2 PUSH2 0xDB7 SWAP2 SWAP1 PUSH2 0x18E6 JUMP JUMPDEST POP PUSH1 0xC0 DUP3 ADD MLOAD DUP2 PUSH1 0x6 ADD SWAP1 DUP2 PUSH2 0xDCD SWAP2 SWAP1 PUSH2 0x18E6 JUMP JUMPDEST POP PUSH1 0xE0 DUP3 ADD MLOAD DUP2 PUSH1 0x7 ADD SWAP1 DUP2 PUSH2 0xDE3 SWAP2 SWAP1 PUSH2 0x18E6 JUMP JUMPDEST POP PUSH2 0x100 DUP3 ADD MLOAD DUP2 PUSH1 0x8 ADD SWAP1 DUP2 PUSH2 0xDFA SWAP2 SWAP1 PUSH2 0x18E6 JUMP JUMPDEST POP POP POP POP POP POP POP POP POP POP POP POP POP JUMP JUMPDEST PUSH1 0x40 MLOAD DUP1 PUSH2 0x140 ADD PUSH1 0x40 MSTORE DUP1 PUSH1 0x60 DUP2 MSTORE PUSH1 0x20 ADD PUSH1 0x60 DUP2 MSTORE PUSH1 0x20 ADD PUSH1 0x60 DUP2 MSTORE PUSH1 0x20 ADD PUSH1 0x60 DUP2 MSTORE PUSH1 0x20 ADD PUSH1 0x60 DUP2 MSTORE PUSH1 0x20 ADD PUSH1 0x60 DUP2 MSTORE PUSH1 0x20 ADD PUSH1 0x60 DUP2 MSTORE PUSH1 0x20 ADD PUSH1 0x60 DUP2 MSTORE PUSH1 0x20 ADD PUSH1 0x0 DUP2 MSTORE PUSH1 0x20 ADD PUSH1 0x60 DUP2 MSTORE POP SWAP1 JUMP JUMPDEST PUSH1 0x0 PUSH1 0x40 MLOAD SWAP1 POP SWAP1 JUMP JUMPDEST PUSH1 0x0 DUP1 REVERT JUMPDEST PUSH1 0x0 DUP1 REVERT JUMPDEST PUSH1 0x0 DUP1 REVERT JUMPDEST PUSH1 0x0 DUP1 REVERT JUMPDEST PUSH1 0x0 PUSH1 0x1F NOT PUSH1 0x1F DUP4 ADD AND SWAP1 POP SWAP2 SWAP1 POP JUMP JUMPDEST PUSH32 0x4E487B7100000000000000000000000000000000000000000000000000000000 PUSH1 0x0 MSTORE PUSH1 0x41 PUSH1 0x4 MSTORE PUSH1 0x24 PUSH1 0x0 REVERT JUMPDEST PUSH2 0xEC3 DUP3 PUSH2 0xE7A JUMP JUMPDEST DUP2 ADD DUP2 DUP2 LT PUSH8 0xFFFFFFFFFFFFFFFF DUP3 GT OR ISZERO PUSH2 0xEE2 JUMPI PUSH2 0xEE1 PUSH2 0xE8B JUMP JUMPDEST JUMPDEST DUP1 PUSH1 0x40 MSTORE POP POP POP JUMP JUMPDEST PUSH1 0x0 PUSH2 0xEF5 PUSH2 0xE5C JUMP JUMPDEST SWAP1 POP PUSH2 0xF01 DUP3 DUP3 PUSH2 0xEBA JUMP JUMPDEST SWAP2 SWAP1 POP JUMP JUMPDEST PUSH1 0x0 PUSH8 0xFFFFFFFFFFFFFFFF DUP3 GT ISZERO PUSH2 0xF21 JUMPI PUSH2 0xF20 PUSH2 0xE8B JUMP JUMPDEST JUMPDEST PUSH2 0xF2A DUP3 PUSH2 0xE7A JUMP JUMPDEST SWAP1 POP PUSH1 0x20 DUP2 ADD SWAP1 POP SWAP2 SWAP1 POP JUMP JUMPDEST DUP3 DUP2 DUP4 CALLDATACOPY PUSH1 0x0 DUP4 DUP4 ADD MSTORE POP POP POP JUMP JUMPDEST PUSH1 0x0 PUSH2 0xF59 PUSH2 0xF54 DUP5 PUSH2 0xF06 JUMP JUMPDEST PUSH2 0xEEB JUMP JUMPDEST SWAP1 POP DUP3 DUP2 MSTORE PUSH1 0x20 DUP2 ADD DUP5 DUP5 DUP5 ADD GT ISZERO PUSH2 0xF75 JUMPI PUSH2 0xF74 PUSH2 0xE75 JUMP JUMPDEST JUMPDEST PUSH2 0xF80 DUP5 DUP3 DUP6 PUSH2 0xF37 JUMP JUMPDEST POP SWAP4 SWAP3 POP POP POP JUMP JUMPDEST PUSH1 0x0 DUP3 PUSH1 0x1F DUP4 ADD SLT PUSH2 0xF9D JUMPI PUSH2 0xF9C PUSH2 0xE70 JUMP JUMPDEST JUMPDEST DUP2 CALLDATALOAD PUSH2 0xFAD DUP5 DUP3 PUSH1 0x20 DUP7 ADD PUSH2 0xF46 JUMP JUMPDEST SWAP2 POP POP SWAP3 SWAP2 POP POP JUMP JUMPDEST PUSH1 0x0 DUP1 PUSH1 0x0 DUP1 PUSH1 0x0 DUP1 PUSH1 0x0 DUP1 PUSH2 0x100 DUP10 DUP12 SUB SLT ISZERO PUSH2 0xFD7 JUMPI PUSH2 0xFD6 PUSH2 0xE66 JUMP JUMPDEST JUMPDEST PUSH1 0x0 DUP10 ADD CALLDATALOAD PUSH8 0xFFFFFFFFFFFFFFFF DUP2 GT ISZERO PUSH2 0xFF5 JUMPI PUSH2 0xFF4 PUSH2 0xE6B JUMP JUMPDEST JUMPDEST PUSH2 0x1001 DUP12 DUP3 DUP13 ADD PUSH2 0xF88 JUMP JUMPDEST SWAP9 POP POP PUSH1 0x20 DUP10 ADD CALLDATALOAD PUSH8 0xFFFFFFFFFFFFFFFF DUP2 GT ISZERO PUSH2 0x1022 JUMPI PUSH2 0x1021 PUSH2 0xE6B JUMP JUMPDEST JUMPDEST PUSH2 0x102E DUP12 DUP3 DUP13 ADD PUSH2 0xF88 JUMP JUMPDEST SWAP8 POP POP PUSH1 0x40 DUP10 ADD CALLDATALOAD PUSH8 0xFFFFFFFFFFFFFFFF DUP2 GT ISZERO PUSH2 0x104F JUMPI PUSH2 0x104E PUSH2 0xE6B JUMP JUMPDEST JUMPDEST PUSH2 0x105B DUP12 DUP3 DUP13 ADD PUSH2 0xF88 JUMP JUMPDEST SWAP7 POP POP PUSH1 0x60 DUP10 ADD CALLDATALOAD PUSH8 0xFFFFFFFFFFFFFFFF DUP2 GT ISZERO PUSH2 0x107C JUMPI PUSH2 0x107B PUSH2 0xE6B JUMP JUMPDEST JUMPDEST PUSH2 0x1088 DUP12 DUP3 DUP13 ADD PUSH2 0xF88 JUMP JUMPDEST SWAP6 POP POP PUSH1 0x80 DUP10 ADD CALLDATALOAD PUSH8 0xFFFFFFFFFFFFFFFF DUP2 GT ISZERO PUSH2 0x10A9 JUMPI PUSH2 0x10A8 PUSH2 0xE6B JUMP JUMPDEST JUMPDEST PUSH2 0x10B5 DUP12 DUP3 DUP13 ADD PUSH2 0xF88 JUMP JUMPDEST SWAP5 POP POP PUSH1 0xA0 DUP10 ADD CALLDATALOAD PUSH8 0xFFFFFFFFFFFFFFFF DUP2 GT ISZERO PUSH2 0x10D6 JUMPI PUSH2 0x10D5 PUSH2 0xE6B JUMP JUMPDEST JUMPDEST PUSH2 0x10E2 DUP12 DUP3 DUP13 ADD PUSH2 0xF88 JUMP JUMPDEST SWAP4 POP POP PUSH1 0xC0 DUP10 ADD CALLDATALOAD PUSH8 0xFFFFFFFFFFFFFFFF DUP2 GT ISZERO PUSH2 0x1103 JUMPI PUSH2 0x1102 PUSH2 0xE6B JUMP JUMPDEST JUMPDEST PUSH2 0x110F DUP12 DUP3 DUP13 ADD PUSH2 0xF88 JUMP JUMPDEST SWAP3 POP POP PUSH1 0xE0 DUP10 ADD CALLDATALOAD PUSH8 0xFFFFFFFFFFFFFFFF DUP2 GT ISZERO PUSH2 0x1130 JUMPI PUSH2 0x112F PUSH2 0xE6B JUMP JUMPDEST JUMPDEST PUSH2 0x113C DUP12 DUP3 DUP13 ADD PUSH2 0xF88 JUMP JUMPDEST SWAP2 POP POP SWAP3 SWAP6 SWAP9 POP SWAP3 SWAP6 SWAP9 SWAP1 SWAP4 SWAP7 POP JUMP JUMPDEST PUSH1 0x0 DUP2 MLOAD SWAP1 POP SWAP2 SWAP1 POP JUMP JUMPDEST PUSH1 0x0 DUP3 DUP3 MSTORE PUSH1 0x20 DUP3 ADD SWAP1 POP SWAP3 SWAP2 POP POP JUMP JUMPDEST PUSH1 0x0 JUMPDEST DUP4 DUP2 LT ISZERO PUSH2 0x1186 JUMPI DUP1 DUP3 ADD MLOAD DUP2 DUP5 ADD MSTORE PUSH1 0x20 DUP2 ADD SWAP1 POP PUSH2 0x116B JUMP JUMPDEST PUSH1 0x0 DUP5 DUP5 ADD MSTORE POP POP POP POP JUMP JUMPDEST PUSH1 0x0 PUSH2 0x119D DUP3 PUSH2 0x114C JUMP JUMPDEST PUSH2 0x11A7 DUP2 DUP6 PUSH2 0x1157 JUMP JUMPDEST SWAP4 POP PUSH2 0x11B7 DUP2 DUP6 PUSH1 0x20 DUP7 ADD PUSH2 0x1168 JUMP JUMPDEST PUSH2 0x11C0 DUP2 PUSH2 0xE7A JUMP JUMPDEST DUP5 ADD SWAP2 POP POP SWAP3 SWAP2 POP POP JUMP JUMPDEST PUSH1 0x0 DUP2 SWAP1 POP SWAP2 SWAP1 POP JUMP JUMPDEST PUSH2 0x11DE DUP2 PUSH2 0x11CB JUMP JUMPDEST DUP3 MSTORE POP POP JUMP JUMPDEST PUSH1 0x0 DUP2 MLOAD SWAP1 POP SWAP2 SWAP1 POP JUMP JUMPDEST PUSH1 0x0 DUP3 DUP3 MSTORE PUSH1 0x20 DUP3 ADD SWAP1 POP SWAP3 SWAP2 POP POP JUMP JUMPDEST PUSH1 0x0 DUP2 SWAP1 POP PUSH1 0x20 DUP3 ADD SWAP1 POP SWAP2 SWAP1 POP JUMP JUMPDEST PUSH1 0x0 PUSH20 0xFFFFFFFFFFFFFFFFFFFFFFFFFFFFFFFFFFFFFFFF DUP3 AND SWAP1 POP SWAP2 SWAP1 POP JUMP JUMPDEST PUSH1 0x0 PUSH2 0x123B DUP3 PUSH2 0x1210 JUMP JUMPDEST SWAP1 POP SWAP2 SWAP1 POP JUMP JUMPDEST PUSH2 0x124B DUP2 PUSH2 0x1230 JUMP JUMPDEST DUP3 MSTORE POP POP JUMP JUMPDEST PUSH1 0x0 PUSH2 0x120 DUP4 ADD PUSH1 0x0 DUP4 ADD MLOAD PUSH2 0x126A PUSH1 0x0 DUP7 ADD DUP3 PUSH2 0x11D5 JUMP JUMPDEST POP PUSH1 0x20 DUP4 ADD MLOAD PUSH2 0x127D PUSH1 0x20 DUP7 ADD DUP3 PUSH2 0x1242 JUMP JUMPDEST POP PUSH1 0x40 DUP4 ADD MLOAD DUP5 DUP3 SUB PUSH1 0x40 DUP7 ADD MSTORE PUSH2 0x1295 DUP3 DUP3 PUSH2 0x1192 JUMP JUMPDEST SWAP2 POP POP PUSH1 0x60 DUP4 ADD MLOAD DUP5 DUP3 SUB PUSH1 0x60 DUP7 ADD MSTORE PUSH2 0x12AF DUP3 DUP3 PUSH2 0x1192 JUMP JUMPDEST SWAP2 POP POP PUSH1 0x80 DUP4 ADD MLOAD DUP5 DUP3 SUB PUSH1 0x80 DUP7 ADD MSTORE PUSH2 0x12C9 DUP3 DUP3 PUSH2 0x1192 JUMP JUMPDEST SWAP2 POP POP PUSH1 0xA0 DUP4 ADD MLOAD DUP5 DUP3 SUB PUSH1 0xA0 DUP7 ADD MSTORE PUSH2 0x12E3 DUP3 DUP3 PUSH2 0x1192 JUMP JUMPDEST SWAP2 POP POP PUSH1 0xC0 DUP4 ADD MLOAD DUP5 DUP3 SUB PUSH1 0xC0 DUP7 ADD MSTORE PUSH2 0x12FD DUP3 DUP3 PUSH2 0x1192 JUMP JUMPDEST SWAP2 POP POP PUSH1 0xE0 DUP4 ADD MLOAD DUP5 DUP3 SUB PUSH1 0xE0 DUP7 ADD MSTORE PUSH2 0x1317 DUP3 DUP3 PUSH2 0x1192 JUMP JUMPDEST SWAP2 POP POP PUSH2 0x100 DUP4 ADD MLOAD DUP5 DUP3 SUB PUSH2 0x100 DUP7 ADD MSTORE PUSH2 0x1333 DUP3 DUP3 PUSH2 0x1192 JUMP JUMPDEST SWAP2 POP POP DUP1 SWAP2 POP POP SWAP3 SWAP2 POP POP JUMP JUMPDEST PUSH1 0x0 PUSH2 0x134C DUP4 DUP4 PUSH2 0x1251 JUMP JUMPDEST SWAP1 POP SWAP3 SWAP2 POP POP JUMP JUMPDEST PUSH1 0x0 PUSH1 0x20 DUP3 ADD SWAP1 POP SWAP2 SWAP1 POP JUMP JUMPDEST PUSH1 0x0 PUSH2 0x136C DUP3 PUSH2 0x11E4 JUMP JUMPDEST PUSH2 0x1376 DUP2 DUP6 PUSH2 0x11EF JUMP JUMPDEST SWAP4 POP DUP4 PUSH1 0x20 DUP3 MUL DUP6 ADD PUSH2 0x1388 DUP6 PUSH2 0x1200 JUMP JUMPDEST DUP1 PUSH1 0x0 JUMPDEST DUP6 DUP2 LT ISZERO PUSH2 0x13C4 JUMPI DUP5 DUP5 SUB DUP10 MSTORE DUP2 MLOAD PUSH2 0x13A5 DUP6 DUP3 PUSH2 0x1340 JUMP JUMPDEST SWAP5 POP PUSH2 0x13B0 DUP4 PUSH2 0x1354 JUMP JUMPDEST SWAP3 POP PUSH1 0x20 DUP11 ADD SWAP10 POP POP PUSH1 0x1 DUP2 ADD SWAP1 POP PUSH2 0x138C JUMP JUMPDEST POP DUP3 SWAP8 POP DUP8 SWAP6 POP POP POP POP POP POP SWAP3 SWAP2 POP POP JUMP JUMPDEST PUSH1 0x0 PUSH2 0x140 DUP4 ADD PUSH1 0x0 DUP4 ADD MLOAD DUP5 DUP3 SUB PUSH1 0x0 DUP7 ADD MSTORE PUSH2 0x13F4 DUP3 DUP3 PUSH2 0x1192 JUMP JUMPDEST SWAP2 POP POP PUSH1 0x20 DUP4 ADD MLOAD DUP5 DUP3 SUB PUSH1 0x20 DUP7 ADD MSTORE PUSH2 0x140E DUP3 DUP3 PUSH2 0x1192 JUMP JUMPDEST SWAP2 POP POP PUSH1 0x40 DUP4 ADD MLOAD DUP5 DUP3 SUB PUSH1 0x40 DUP7 ADD MSTORE PUSH2 0x1428 DUP3 DUP3 PUSH2 0x1192 JUMP JUMPDEST SWAP2 POP POP PUSH1 0x60 DUP4 ADD MLOAD DUP5 DUP3 SUB PUSH1 0x60 DUP7 ADD MSTORE PUSH2 0x1442 DUP3 DUP3 PUSH2 0x1192 JUMP JUMPDEST SWAP2 POP POP PUSH1 0x80 DUP4 ADD MLOAD DUP5 DUP3 SUB PUSH1 0x80 DUP7 ADD MSTORE PUSH2 0x145C DUP3 DUP3 PUSH2 0x1192 JUMP JUMPDEST SWAP2 POP POP PUSH1 0xA0 DUP4 ADD MLOAD DUP5 DUP3 SUB PUSH1 0xA0 DUP7 ADD MSTORE PUSH2 0x1476 DUP3 DUP3 PUSH2 0x1192 JUMP JUMPDEST SWAP2 POP POP PUSH1 0xC0 DUP4 ADD MLOAD DUP5 DUP3 SUB PUSH1 0xC0 DUP7 ADD MSTORE PUSH2 0x1490 DUP3 DUP3 PUSH2 0x1192 JUMP JUMPDEST SWAP2 POP POP PUSH1 0xE0 DUP4 ADD MLOAD DUP5 DUP3 SUB PUSH1 0xE0 DUP7 ADD MSTORE PUSH2 0x14AA DUP3 DUP3 PUSH2 0x1192 JUMP JUMPDEST SWAP2 POP POP PUSH2 0x100 DUP4 ADD MLOAD PUSH2 0x14C1 PUSH2 0x100 DUP7 ADD DUP3 PUSH2 0x11D5 JUMP JUMPDEST POP PUSH2 0x120 DUP4 ADD MLOAD DUP5 DUP3 SUB PUSH2 0x120 DUP7 ADD MSTORE PUSH2 0x14DB DUP3 DUP3 PUSH2 0x1361 JUMP JUMPDEST SWAP2 POP POP DUP1 SWAP2 POP POP SWAP3 SWAP2 POP POP JUMP JUMPDEST PUSH1 0x0 PUSH1 0x20 DUP3 ADD SWAP1 POP DUP2 DUP2 SUB PUSH1 0x0 DUP4 ADD MSTORE PUSH2 0x1502 DUP2 DUP5 PUSH2 0x13D6 JUMP JUMPDEST SWAP1 POP SWAP3 SWAP2 POP POP JUMP JUMPDEST PUSH2 0x1513 DUP2 PUSH2 0x1230 JUMP JUMPDEST DUP3 MSTORE POP POP JUMP JUMPDEST PUSH1 0x0 PUSH1 0x20 DUP3 ADD SWAP1 POP PUSH2 0x152E PUSH1 0x0 DUP4 ADD DUP5 PUSH2 0x150A JUMP JUMPDEST SWAP3 SWAP2 POP POP JUMP JUMPDEST PUSH2 0x153D DUP2 PUSH2 0x1230 JUMP JUMPDEST DUP2 EQ PUSH2 0x1548 JUMPI PUSH1 0x0 DUP1 REVERT JUMPDEST POP JUMP JUMPDEST PUSH1 0x0 DUP2 CALLDATALOAD SWAP1 POP PUSH2 0x155A DUP2 PUSH2 0x1534 JUMP JUMPDEST SWAP3 SWAP2 POP POP JUMP JUMPDEST PUSH1 0x0 DUP1 PUSH1 0x0 DUP1 PUSH1 0x0 DUP1 PUSH1 0x0 DUP1 PUSH2 0x100 DUP10 DUP12 SUB SLT ISZERO PUSH2 0x1581 JUMPI PUSH2 0x1580 PUSH2 0xE66 JUMP JUMPDEST JUMPDEST PUSH1 0x0 PUSH2 0x158F DUP12 DUP3 DUP13 ADD PUSH2 0x154B JUMP JUMPDEST SWAP9 POP POP PUSH1 0x20 DUP10 ADD CALLDATALOAD PUSH8 0xFFFFFFFFFFFFFFFF DUP2 GT ISZERO PUSH2 0x15B0 JUMPI PUSH2 0x15AF PUSH2 0xE6B JUMP JUMPDEST JUMPDEST PUSH2 0x15BC DUP12 DUP3 DUP13 ADD PUSH2 0xF88 JUMP JUMPDEST SWAP8 POP POP PUSH1 0x40 DUP10 ADD CALLDATALOAD PUSH8 0xFFFFFFFFFFFFFFFF DUP2 GT ISZERO PUSH2 0x15DD JUMPI PUSH2 0x15DC PUSH2 0xE6B JUMP JUMPDEST JUMPDEST PUSH2 0x15E9 DUP12 DUP3 DUP13 ADD PUSH2 0xF88 JUMP JUMPDEST SWAP7 POP POP PUSH1 0x60 DUP10 ADD CALLDATALOAD PUSH8 0xFFFFFFFFFFFFFFFF DUP2 GT ISZERO PUSH2 0x160A JUMPI PUSH2 0x1609 PUSH2 0xE6B JUMP JUMPDEST JUMPDEST PUSH2 0x1616 DUP12 DUP3 DUP13 ADD PUSH2 0xF88 JUMP JUMPDEST SWAP6 POP POP PUSH1 0x80 DUP10 ADD CALLDATALOAD PUSH8 0xFFFFFFFFFFFFFFFF DUP2 GT ISZERO PUSH2 0x1637 JUMPI PUSH2 0x1636 PUSH2 0xE6B JUMP JUMPDEST JUMPDEST PUSH2 0x1643 DUP12 DUP3 DUP13 ADD PUSH2 0xF88 JUMP JUMPDEST SWAP5 POP POP PUSH1 0xA0 DUP10 ADD CALLDATALOAD PUSH8 0xFFFFFFFFFFFFFFFF DUP2 GT ISZERO PUSH2 0x1664 JUMPI PUSH2 0x1663 PUSH2 0xE6B JUMP JUMPDEST JUMPDEST PUSH2 0x1670 DUP12 DUP3 DUP13 ADD PUSH2 0xF88 JUMP JUMPDEST SWAP4 POP POP PUSH1 0xC0 DUP10 ADD CALLDATALOAD PUSH8 0xFFFFFFFFFFFFFFFF DUP2 GT ISZERO PUSH2 0x1691 JUMPI PUSH2 0x1690 PUSH2 0xE6B JUMP JUMPDEST JUMPDEST PUSH2 0x169D DUP12 DUP3 DUP13 ADD PUSH2 0xF88 JUMP JUMPDEST SWAP3 POP POP PUSH1 0xE0 DUP10 ADD CALLDATALOAD PUSH8 0xFFFFFFFFFFFFFFFF DUP2 GT ISZERO PUSH2 0x16BE JUMPI PUSH2 0x16BD PUSH2 0xE6B JUMP JUMPDEST JUMPDEST PUSH2 0x16CA DUP12 DUP3 DUP13 ADD PUSH2 0xF88 JUMP JUMPDEST SWAP2 POP POP SWAP3 SWAP6 SWAP9 POP SWAP3 SWAP6 SWAP9 SWAP1 SWAP4 SWAP7 POP JUMP JUMPDEST PUSH32 0x4E487B7100000000000000000000000000000000000000000000000000000000 PUSH1 0x0 MSTORE PUSH1 0x22 PUSH1 0x4 MSTORE PUSH1 0x24 PUSH1 0x0 REVERT JUMPDEST PUSH1 0x0 PUSH1 0x2 DUP3 DIV SWAP1 POP PUSH1 0x1 DUP3 AND DUP1 PUSH2 0x1721 JUMPI PUSH1 0x7F DUP3 AND SWAP2 POP JUMPDEST PUSH1 0x20 DUP3 LT DUP2 SUB PUSH2 0x1734 JUMPI PUSH2 0x1733 PUSH2 0x16DA JUMP JUMPDEST JUMPDEST POP SWAP2 SWAP1 POP JUMP JUMPDEST PUSH1 0x0 DUP2 SWAP1 POP DUP2 PUSH1 0x0 MSTORE PUSH1 0x20 PUSH1 0x0 KECCAK256 SWAP1 POP SWAP2 SWAP1 POP JUMP JUMPDEST PUSH1 0x0 PUSH1 0x20 PUSH1 0x1F DUP4 ADD DIV SWAP1 POP SWAP2 SWAP1 POP JUMP JUMPDEST PUSH1 0x0 DUP3 DUP3 SHL SWAP1 POP SWAP3 SWAP2 POP POP JUMP JUMPDEST PUSH1 0x0 PUSH1 0x8 DUP4 MUL PUSH2 0x179C PUSH32 0xFFFFFFFFFFFFFFFFFFFFFFFFFFFFFFFFFFFFFFFFFFFFFFFFFFFFFFFFFFFFFFFF DUP3 PUSH2 0x175F JUMP JUMPDEST PUSH2 0x17A6 DUP7 DUP4 PUSH2 0x175F JUMP JUMPDEST SWAP6 POP DUP1 NOT DUP5 AND SWAP4 POP DUP1 DUP7 AND DUP5 OR SWAP3 POP POP POP SWAP4 SWAP3 POP POP POP JUMP JUMPDEST PUSH1 0x0 DUP2 SWAP1 POP SWAP2 SWAP1 POP JUMP JUMPDEST PUSH1 0x0 PUSH2 0x17E3 PUSH2 0x17DE PUSH2 0x17D9 DUP5 PUSH2 0x11CB JUMP JUMPDEST PUSH2 0x17BE JUMP JUMPDEST PUSH2 0x11CB JUMP JUMPDEST SWAP1 POP SWAP2 SWAP1 POP JUMP JUMPDEST PUSH1 0x0 DUP2 SWAP1 POP SWAP2 SWAP1 POP JUMP JUMPDEST PUSH2 0x17FD DUP4 PUSH2 0x17C8 JUMP JUMPDEST PUSH2 0x1811 PUSH2 0x1809 DUP3 PUSH2 0x17EA JUMP JUMPDEST DUP5 DUP5 SLOAD PUSH2 0x176C JUMP JUMPDEST DUP3 SSTORE POP POP POP POP JUMP JUMPDEST PUSH1 0x0 SWAP1 JUMP JUMPDEST PUSH2 0x1826 PUSH2 0x1819 JUMP JUMPDEST PUSH2 0x1831 DUP2 DUP5 DUP5 PUSH2 0x17F4 JUMP JUMPDEST POP POP POP JUMP JUMPDEST JUMPDEST DUP2 DUP2 LT ISZERO PUSH2 0x1855 JUMPI PUSH2 0x184A PUSH1 0x0 DUP3 PUSH2 0x181E JUMP JUMPDEST PUSH1 0x1 DUP2 ADD SWAP1 POP PUSH2 0x1837 JUMP JUMPDEST POP POP JUMP JUMPDEST PUSH1 0x1F DUP3 GT ISZERO PUSH2 0x189A JUMPI PUSH2 0x186B DUP2 PUSH2 0x173A JUMP JUMPDEST PUSH2 0x1874 DUP5 PUSH2 0x174F JUMP JUMPDEST DUP2 ADD PUSH1 0x20 DUP6 LT ISZERO PUSH2 0x1883 JUMPI DUP2 SWAP1 POP JUMPDEST PUSH2 0x1897 PUSH2 0x188F DUP6 PUSH2 0x174F JUMP JUMPDEST DUP4 ADD DUP3 PUSH2 0x1836 JUMP JUMPDEST POP POP JUMPDEST POP POP POP JUMP JUMPDEST PUSH1 0x0 DUP3 DUP3 SHR SWAP1 POP SWAP3 SWAP2 POP POP JUMP JUMPDEST PUSH1 0x0 PUSH2 0x18BD PUSH1 0x0 NOT DUP5 PUSH1 0x8 MUL PUSH2 0x189F JUMP JUMPDEST NOT DUP1 DUP4 AND SWAP2 POP POP SWAP3 SWAP2 POP POP JUMP JUMPDEST PUSH1 0x0 PUSH2 0x18D6 DUP4 DUP4 PUSH2 0x18AC JUMP JUMPDEST SWAP2 POP DUP3 PUSH1 0x2 MUL DUP3 OR SWAP1 POP SWAP3 SWAP2 POP POP JUMP JUMPDEST PUSH2 0x18EF DUP3 PUSH2 0x114C JUMP JUMPDEST PUSH8 0xFFFFFFFFFFFFFFFF DUP2 GT ISZERO PUSH2 0x1908 JUMPI PUSH2 0x1907 PUSH2 0xE8B JUMP JUMPDEST JUMPDEST PUSH2 0x1912 DUP3 SLOAD PUSH2 0x1709 JUMP JUMPDEST PUSH2 0x191D DUP3 DUP3 DUP6 PUSH2 0x1859 JUMP JUMPDEST PUSH1 0x0 PUSH1 0x20 SWAP1 POP PUSH1 0x1F DUP4 GT PUSH1 0x1 DUP2 EQ PUSH2 0x1950 JUMPI PUSH1 0x0 DUP5 ISZERO PUSH2 0x193E JUMPI DUP3 DUP8 ADD MLOAD SWAP1 POP JUMPDEST PUSH2 0x1948 DUP6 DUP3 PUSH2 0x18CA JUMP JUMPDEST DUP7 SSTORE POP PUSH2 0x19B0 JUMP JUMPDEST PUSH1 0x1F NOT DUP5 AND PUSH2 0x195E DUP7 PUSH2 0x173A JUMP JUMPDEST PUSH1 0x0 JUMPDEST DUP3 DUP2 LT ISZERO PUSH2 0x1986 JUMPI DUP5 DUP10 ADD MLOAD DUP3 SSTORE PUSH1 0x1 DUP3 ADD SWAP2 POP PUSH1 0x20 DUP6 ADD SWAP5 POP PUSH1 0x20 DUP2 ADD SWAP1 POP PUSH2 0x1961 JUMP JUMPDEST DUP7 DUP4 LT ISZERO PUSH2 0x19A3 JUMPI DUP5 DUP10 ADD MLOAD PUSH2 0x199F PUSH1 0x1F DUP10 AND DUP3 PUSH2 0x18AC JUMP JUMPDEST DUP4 SSTORE POP JUMPDEST PUSH1 0x1 PUSH1 0x2 DUP9 MUL ADD DUP9 SSTORE POP POP POP JUMPDEST POP POP POP POP POP POP JUMP INVALID LOG2 PUSH5 0x6970667358 0x22 SLT KECCAK256 DUP7 0xF7 RETURN 0xC0 0xBC SHL STOP PUSH13 0x7AFC832273A11DC1CE5A73D091 BYTE 0xC1 0xD3 LT PUSH6 0x323FED2BB125 PUSH5 0x736F6C6343 STOP ADDMOD GT STOP CALLER "
		},
		"gasEstimates": {
			"creation": {
				"codeDepositCost": "1327600",
				"executionCost": "1383",
				"totalCost": "1328983"
			},
			"external": {
				"addMedicalHistory(address,string,string,string,string,string,string,string)": "infinite",
				"createNewPatient(string,string,string,string,string,string,string,string)": "infinite",
				"editInfoPatient(string,string,string,string,string,string,string,string)": "infinite",
				"getPatientByPublicAddress()": "infinite"
			}
		},
		"methodIdentifiers": {
			"addMedicalHistory(address,string,string,string,string,string,string,string)": "f74258f9",
			"createNewPatient(string,string,string,string,string,string,string,string)": "a526b217",
			"editInfoPatient(string,string,string,string,string,string,string,string)": "0046a65a",
			"getPatientByPublicAddress()": "201cb0b6"
		}
	},
	"abi": [
		{
			"inputs": [
				{
					"internalType": "address",
					"name": "patientAddress",
					"type": "address"
				},
				{
					"internalType": "string",
					"name": "symtom",
					"type": "string"
				},
				{
					"internalType": "string",
					"name": "diseaseName",
					"type": "string"
				},
				{
					"internalType": "string",
					"name": "diseaseDescription",
					"type": "string"
				},
				{
					"internalType": "string",
					"name": "treatmentInfo",
					"type": "string"
				},
				{
					"internalType": "string",
					"name": "treatmentResult",
					"type": "string"
				},
				{
					"internalType": "string",
					"name": "diseaseStatus",
					"type": "string"
				},
				{
					"internalType": "string",
					"name": "documentLink",
					"type": "string"
				}
			],
			"name": "addMedicalHistory",
			"outputs": [],
			"stateMutability": "nonpayable",
			"type": "function"
		},
		{
			"inputs": [
				{
					"internalType": "string",
					"name": "name",
					"type": "string"
				},
				{
					"internalType": "string",
					"name": "birth",
					"type": "string"
				},
				{
					"internalType": "string",
					"name": "phone",
					"type": "string"
				},
				{
					"internalType": "string",
					"name": "email",
					"type": "string"
				},
				{
					"internalType": "string",
					"name": "height",
					"type": "string"
				},
				{
					"internalType": "string",
					"name": "weight",
					"type": "string"
				},
				{
					"internalType": "string",
					"name": "bloodType",
					"type": "string"
				},
				{
					"internalType": "string",
					"name": "healthStatus",
					"type": "string"
				}
			],
			"name": "createNewPatient",
			"outputs": [
				{
					"internalType": "address",
					"name": "",
					"type": "address"
				}
			],
			"stateMutability": "nonpayable",
			"type": "function"
		},
		{
			"inputs": [
				{
					"internalType": "string",
					"name": "name",
					"type": "string"
				},
				{
					"internalType": "string",
					"name": "birth",
					"type": "string"
				},
				{
					"internalType": "string",
					"name": "phone",
					"type": "string"
				},
				{
					"internalType": "string",
					"name": "email",
					"type": "string"
				},
				{
					"internalType": "string",
					"name": "height",
					"type": "string"
				},
				{
					"internalType": "string",
					"name": "weight",
					"type": "string"
				},
				{
					"internalType": "string",
					"name": "bloodType",
					"type": "string"
				},
				{
					"internalType": "string",
					"name": "healthStatus",
					"type": "string"
				}
			],
			"name": "editInfoPatient",
			"outputs": [],
			"stateMutability": "nonpayable",
			"type": "function"
		},
		{
			"inputs": [],
			"name": "getPatientByPublicAddress",
			"outputs": [
				{
					"components": [
						{
							"internalType": "string",
							"name": "name",
							"type": "string"
						},
						{
							"internalType": "string",
							"name": "birth",
							"type": "string"
						},
						{
							"internalType": "string",
							"name": "phone",
							"type": "string"
						},
						{
							"internalType": "string",
							"name": "email",
							"type": "string"
						},
						{
							"internalType": "string",
							"name": "height",
							"type": "string"
						},
						{
							"internalType": "string",
							"name": "weight",
							"type": "string"
						},
						{
							"internalType": "string",
							"name": "bloodType",
							"type": "string"
						},
						{
							"internalType": "string",
							"name": "healthStatus",
							"type": "string"
						},
						{
							"internalType": "uint256",
							"name": "medicalHistoryCount",
							"type": "uint256"
						},
						{
							"components": [
								{
									"internalType": "uint256",
									"name": "timestamp",
									"type": "uint256"
								},
								{
									"internalType": "address",
									"name": "doctorAddress",
									"type": "address"
								},
								{
									"internalType": "string",
									"name": "symtom",
									"type": "string"
								},
								{
									"internalType": "string",
									"name": "diseaseName",
									"type": "string"
								},
								{
									"internalType": "string",
									"name": "diseaseDescription",
									"type": "string"
								},
								{
									"internalType": "string",
									"name": "treatmentInfo",
									"type": "string"
								},
								{
									"internalType": "string",
									"name": "treatmentResult",
									"type": "string"
								},
								{
									"internalType": "string",
									"name": "diseaseStatus",
									"type": "string"
								},
								{
									"internalType": "string",
									"name": "documentLink",
									"type": "string"
								}
							],
							"internalType": "struct Patients.MedicalHistoryStruct[]",
							"name": "medicalHistory",
							"type": "tuple[]"
						}
					],
					"internalType": "struct Patients.PatientStruct",
					"name": "",
					"type": "tuple"
				}
			],
			"stateMutability": "view",
			"type": "function"
		}
	]
}